:100000000C9463000C94B11E0C948A1E0C948B000B
:100010000C948B000C948B000C948B000C940B2193
:100020000C948B000C948B000C948B000C944F2040
:100030000C948B000C948B000C948B000C948B0014
:100040000C94401E0C948B000C94FE1E0C94D81E35
:100050000C948B000C948B000C948B000C948B00F4
:100060000C94301F0C948B0000000000240027002B
:100070002A0000000000250028002B0000000008D6
:10008000000201000003040700000000000000005F
:1000900000000000230026002900040404040404D6
:1000A0000404020202020202030303030303010227
:1000B00004081020408001020408102001020408F6
:1000C00010201022163411241FBECFEFD8E0DEBF5F
:1000D000CDBF11E0A0E0B1E0EEE4F8E702C005908A
:1000E0000D92A23FB107D9F725E0A2EFB1E001C020
:1000F0001D92A139B207E1F710E0C2E6D0E004C0DA
:100100002197FE010E943637C136D107C9F70E94F8
:1001100018230C941A3C0C940000CF92DF92EF92BB
:10012000FF92DC01A43F81E0B807D4F5A53BB105FF
:1001300014F0A4EBB0E040911F052DE730E0241B44
:10014000310947FD3395220F331F220F331F6901F9
:10015000330FEE08FF084091200521E732E0241B11
:10016000310947FD3395220F331F220F331F032E12
:10017000000C440B550B2C193D094E095F09B7FFC4
:1001800002C0B0E0A0E00E94683524EB30E040E01F
:1001900050E00E943E35C20ED31EE41EF51ED6016D
:1001A000E0911E05EC3080F520911F058DE790E071
:1001B000821B910927FD9395880F991F880F991F1E
:1001C000A817B90784F02091200581E792E0821BEF
:1001D000910927FD9395880F991F880F991FA817DC
:1001E000B9070CF4CD010297880F991F4FB7F89407
:1001F0002E2F30E0F901EE0FFF1FE20FF31FE75043
:10020000FB4F928381834FBFFF90EF90DF90CF90A1
:10021000089520E0DC0160FF03C001C02D932D9301
:100220006250E0F77040D0F70895833081F028F4F1
:10023000813099F08230A9F008958730A9F0883094
:10024000C9F08430B1F4809180008F7D03C080912B
:1002500080008F7780938000089584B58F7784BD68
:10026000089584B58F7DFBCF8091B0008F77809308
:10027000B00008958091B0008F7DF9CF1F93CF9388
:10028000DF93282F30E0F901E458FF4F8491F90102
:10029000E255FF4FD491F901E656FF4FC491CC23AC
:1002A000A9F0162F81110E941501EC2FF0E0EE0F3E
:1002B000FF1FEE58FF4FA591B4918FB7F894EC91C2
:1002C000111108C0D095DE23DC938FBFDF91CF9151
:1002D0001F910895DE2BF8CFCF93DF9390E0FC01C0
:1002E000E255FF4F249186569F4FFC01849188234D
:1002F000C9F090E0880F991FFC01E859FF4FA591C4
:10030000B491FC01EE58FF4FC591D49161110DC01D
:100310009FB7F8948C91209582238C938881282311
:1003200028839FBFDF91CF910895623051F49FB72A
:10033000F8943C91822F809583238C93E8812E2B17
:10034000EFCF8FB7F894EC912E2B2C938FBFEACF81
:100350000F931F93CF9390911E059C3008F05BC0C4
:100360008B01C82F61E00E946C0180911E05282F2F
:1003700030E0F901EE0FFF1FE20FF31FE750FB4FD4
:10038000CF739081907CC92BC08310921F0524EC01
:1003900039E0201B310B359527953595279520930E
:1003A00020052CE0622F0E940237829FB0011124A9
:1003B00030E020E0AB01420F531FFA01EE0FFF1FA8
:1003C000E40FF51FE750FB4F908196FD16C02F5F9D
:1003D0003F4F2C30310571F781110FC01092800012
:1003E00082E0809381001092850010928400B19A7F
:1003F00080916F00826080936F00E0911E058E2FC8
:1004000090E0FC01EE0FFF1FE80FF91FE750FB4FD4
:1004100080818064808380911E05CF911F910F9110
:10042000089564EC79E00C94A8011F93CF93DF93B7
:10043000182FEB0161E00E946C01209739F460E015
:10044000812FDF91CF911F910C943E01CF3FD105B9
:1004500011F461E0F5CFE12FF0E0E458FF4FE491B3
:10046000E33031F140F4E130B1F0E230E1F0C03896
:10047000D1057CF7E4CFE73029F1E83059F1E430D9
:10048000B1F780918000806280938000D0938B00D0
:10049000C0938A0004C084B5806884BDC7BDDF9165
:1004A000CF911F91089584B5806284BDC8BDF7CFF8
:1004B00080918000806880938000D0938900C093F1
:1004C0008800EDCF8091B00080688093B000C09329
:1004D000B300E5CF8091B00080628093B000C093FC
:1004E000B400DDCFFF920F931F93CF93DF93F42ED1
:1004F000C22F062F10E060E0813009F061E088E053
:100500000E943E01B80185E00E941502D0E081E022
:1005100061E0F81260E087E00E943E01BE0186E0E3
:10052000DF91CF911F910F91FF900C9415028E5087
:10053000806480937C0080917A00806480937A004C
:1005400080917A0086FDFCCF8091780090917900AF
:1005500008953FB7F8948091CD029091CE02A0917A
:10056000CF02B091D00226B5A89B05C02F3F19F04D
:100570000196A11DB11D3FBFBA2FA92F982F882723
:10058000BC01CD01620F711D811D911D42E0660FFE
:10059000771F881F991F4A95D1F708958F929F92D0
:1005A000AF92BF92CF92DF92EF92FF926B017C01EC
:1005B0000E94A9024B015C01C114D104E104F104C1
:1005C000B9F00E94A902681979098A099B09683E55
:1005D00073408105910580F321E0C21AD108E1083A
:1005E000F10888EE880E83E0981EA11CB11CE4CFB0
:1005F000FF90EF90DF90CF90BF90AF909F908F9043
:1006000008951F93CF93DF93182FEB018D7F8130D7
:10061000A9F4209729F0653B710510F0C4EBD0E0F8
:100620008AE090E00E941102CE010E948D006DE7E9
:1006300070E080E090E00E94CE02A8951250123047
:10064000A8F4209729F0C53BD10510F0C4EBD0E009
:100650008BE090E00E941102CE010E948D006DE7B8
:1006600070E080E090E00E94CE02A895E0911E0527
:100670008E2F90E0FC01EE0FFF1FE80FF91FE750EF
:10068000FB4F80818F7B8083DF91CF911F910895F5
:100690002FB7F8946091C9027091CA028091CB0281
:1006A0009091CC022FBF0895CF92DF92EF92FF92EC
:1006B0000F931F930E94480300914C0310914D0328
:1006C00020914E0330914F036B017C01C01AD10A77
:1006D000E20AF30AA70196012115310541055105EA
:1006E00021F421E030E040E050E0E0914A03F09155
:1006F0004B0388EE93E0E89FB001E99F700DF89FEF
:10070000700D1124072E000C880B990B0E94A73541
:100710003093FB032093FA0310924B0310924A0389
:100720000E94480360934C0370934D0380934E03E3
:1007300090934F031F910F91FF90EF90DF90CF9018
:100740000895CF92DF92EF92FF92CF93DF93EC0167
:10075000072E000C880B990B0E9421346B017C0141
:1007600020E030E040E45FE30E94803420E030E0AD
:1007700048E452E40E9445360E94B736C617D707B0
:10078000D4F020E030E040EA5FE3C701B6010E9408
:10079000803420E030E048E452E40E94453620E016
:1007A00030E040E85FE30E94D9350E94B73621E08F
:1007B0006C177D070CF420E0822F90E0DF91CF9141
:1007C000FF90EF90DF90CF9008958F929F92AF921D
:1007D000BF92CF92DF92EF92FF920F931F93CF932E
:1007E000DF93FC0120813181E091EF02F091F00272
:1007F00001E010E02E173F070CF043C0D901AA0F0B
:10080000BB1FE091ED02F091EE02EA0FFB1FA0800A
:10081000B1808901009510950170112720FD23C03A
:100820002CE93FEFEA016B017C014901840E951E22
:10083000B401C5010E94A103892BC1F48C0E9D1E39
:10084000B401C5010E94A103892B49F5BE01680DC1
:10085000791DC5010E94A10323E030E0892B41F4FA
:100860000FEF1FEF0EC024E630E0DCCF21E030E0D8
:10087000F601808191810196821793079CF4918300
:100880008083C801DF91CF911F910F91FF90EF906E
:10089000DF90CF90BF90AF909F908F90089522E00F
:1008A00030E0E6CF11821082F701808191810196BC
:1008B000E6CF80E991E00895089508950895AF92F4
:1008C000BF92CF92DF92EF92FF920F931F93CF933D
:1008D000DF936C017B018B01040F151FEB015E019F
:1008E000AE18BF08C017D10759F06991D601ED9134
:1008F000FC910190F081E02DC6010995892B79F7D3
:10090000C501DF91CF911F910F91FF90EF90DF9084
:10091000CF90BF90AF900895FC01448155816081D4
:10092000718180E593E00C945F04FC01538D448D4C
:10093000252F30E0842F90E0821B930B541710F08A
:10094000CF96089501970895FC01918D828D981797
:1009500061F0A28DAE0FBF2FB11D5D968C91928D6F
:100960009F5F9F73928F90E008958FEF9FEF0895A0
:10097000FC01918D828D981731F0828DE80FF11D69
:10098000858D90E008958FEF9FEF0895FC01918D84
:10099000228D892F90E0805C9F4F821B91098F737D
:1009A0009927089580E593E00E94C60421E0892BF1
:1009B00009F420E0822F089580E090E0892B29F04F
:1009C0000E94D20481110C9400000895FC01A48DB2
:1009D000A80FB92FB11DA35ABF4F2C91848D90E061
:1009E00001968F739927848FA689B7892C93A08944
:1009F000B1898C91837080648C93938D848D9813CE
:100A000006C00288F389E02D80818F7D8083089560
:100A1000EF92FF920F931F93CF93DF93EC0181E04E
:100A2000888F9B8D8C8D98131AC0E889F9898081F5
:100A300085FF15C09FB7F894EE89FF896083E88928
:100A4000F98980818370806480839FBF81E090E01A
:100A5000DF91CF911F910F91FF90EF900895F62EA7
:100A60000B8D10E00F5F1F4F0F731127E02E8C8D41
:100A70008E110CC00FB607FCFACFE889F989808186
:100A800085FFF5CFCE010E94E604F1CFEB8DEC0F90
:100A9000FD2FF11DE35AFF4FF0829FB7F8940B8FA3
:100AA000EA89FB8980818062CFCFCF93DF93EC010D
:100AB000888D8823B9F0AA89BB89E889F9898C9146
:100AC00085FD03C0808186FD0DC00FB607FCF7CF02
:100AD0008C9185FFF2CF808185FFEDCFCE010E9402
:100AE000E604E9CFDF91CF91089520914802260FC7
:100AF0003327331F21323105ECF420911A03FC0116
:100B000090E080E0243069F082E00895A0914802EE
:100B10002191AC01485D5D4FA40FB52FB11D2C9301
:100B20000196861798F380914802680F60934802F7
:100B300080E0089581E0089510921A0381E0809387
:100B400019031092F40261E082E10E943E0161E02B
:100B500083E10E943E01E9EBF0E080818E7F80839B
:100B600080818D7F808388E48093B80085E48093C2
:100B7000BC000895CF93DF9391E0909327028823E0
:100B8000B9F0C091B800D091BA008091BC008A7BC6
:100B90008093BC0060E082E10E943E0160E083E15E
:100BA0000E943E010E949C05D093BA00C093B800F9
:100BB000DF91CF9108958F929F92AF92BF92CF9283
:100BC000DF92EF92FF920F931F93CF93DF93D09119
:100BD0004303D13208F0D7C0182FC09142030E94BE
:100BE000A9026B017C0180911A0381116BC082E024
:100BF00080931A03109319038FEF809318031092B8
:100C00001703D0931603A2E2B3E0E6EFF2E080E030
:100C1000D81391C01092F5028091F502CC0FC82B29
:100C2000C093F5028091F402813009F088C01092DF
:100C3000F4020E94A9026B017C018091F50280936D
:100C4000BB0080911C0390911D03A0911E03B091E5
:100C50001F03892B8A2B8B2BA1F00E94A9020091E4
:100C60001C0310911D0320911E0330911F036C196A
:100C70007D098E099F09061717072807390708F409
:100C800042C08091BC0083FDD8CF85EC8093BC002E
:100C90000E94A9026B017C0180911A03823009F441
:100CA00050C0809118038F3F09F46FC080911803E2
:100CB000803209F46CC080911803803309F469C054
:100CC00084E026C080911C0390911D03A0911E0317
:100CD000B0911F03892B8A2B8B2B09F484CF0E94A0
:100CE000A90280901C0390901D03A0901E03B09059
:100CF0001F036C197D098E099F0986169706A806A1
:100D0000B90608F070CF80911B030E94BA0585E0F8
:100D1000109221031092430310922003DF91CF9190
:100D20001F910F91FF90EF90DF90CF90BF90AF9009
:100D30009F908F9008959D9191938F5F69CF85EEDD
:100D4000A5CF80911C0390911D03A0911E03B0912B
:100D50001F03892B8A2B8B2B09F49ECF0E94A9029B
:100D600000911C0310911D0320911E0330911F035D
:100D70006C197D098E099F0906171707280739077F
:100D800008F08ACFC0CF81E0C3CF80E0C1CF82E03E
:100D9000BFCF83E0BDCF0895E091700280916F02D4
:100DA000E81730F4F0E0E95FFD4F808190E00895AE
:100DB0008FEF9FEF08959091700280916F022FEF57
:100DC0003FEF981748F4E92FF0E0E95FFD4F2081ED
:100DD00030E09F5F90937002C901089580916F0287
:100DE00090917002891B990B0895CF92DF92EF9238
:100DF000FF920F931F93CF93DF937C01CB018A0166
:100E000020912003222389F0EB016B01C40ED51E33
:100E1000CC15DD0569F06991D701ED91FC91019048
:100E2000F081E02DC7010995F3CF642F0E9475056D
:100E3000C801DF91CF911F910F91FF90EF90DF904C
:100E4000CF900895CF93DF931F92CDB7DEB769831C
:100E5000209120032223F9F020914303203258F0FF
:100E600021E030E0FC013383228390E080E00F90AA
:100E7000DF91CF91089580912103E82FF0E0EE5D9E
:100E8000FC4F998190838F5F80932103809343036C
:100E900081E090E0ECCF61E0CE0101960E94750503
:100EA000F7CFCF93DF93EA0191E0909320038093F3
:100EB000420310922103109243038DEE93E00E94AF
:100EC000220768818DEE93E00E94220781E00E9454
:100ED000DB0591E0811190E0892FDF91CF9108959A
:100EE00090E080E008950F931F93CF93DF932091BC
:100EF00005022F5F322F37703093050220FF2BC081
:100F000020E831FD2064347009F02062205FFC018C
:100F1000EC01239600E011E06485662329F070E07F
:100F2000C8010E9422376F5F6187322F369F030E00
:100F300030E0311D1124311110C01682662311F0EA
:100F4000615061873196EC17FD0731F7DF91CF9142
:100F50001F910F91089520E0D4CF31503683EECF0A
:100F60004F925F926F927F928F92AF92BF92CF9289
:100F7000DF92EF920F931F93CF93DF933C01EB012E
:100F80000E94A902F30127853089621B730B6A3026
:100F90007105B0F3F894E881F9817BB170616BB1B0
:100FA0006F7E6BB9CA848F812C2D281B822F2F83D3
:100FB000BF844A805B801D850C85DE841F5F0F5FC8
:100FC000D3949E813885A984EB844181D20120E0AD
:100FD000C32F522F322F3181442788943111380F7B
:100FE00008F43FEF8195889410FD430F479588944E
:100FF00011FD430F4795889412FD430F4795889440
:1010000013FD430F4795889414FD430F479588942B
:1010100015FD430F4795889416FD430F4795889417
:1010200017FD430F47958894232F1111242F8C0D02
:10103000422F002C7BB900C047FF6BB930812227BB
:10104000889400C000C0002C6BB93111390F00C06A
:10105000002C7BB900C046FF6BB908F43FEF9195B7
:10106000889400C000C0002C6BB900FD230F00C0A5
:10107000002C7BB900C045FF6BB92795889401FD12
:10108000230F00C000C0002C6BB92795889400C0C6
:10109000002C7BB900C044FF6BB902FD230F2795DC
:1010A000889400C000C0002C6BB903FD230F00C062
:1010B000002C7BB900C043FF6BB92795889404FDD1
:1010C000230F00C000C0002C6BB92795889400C086
:1010D000002C7BB900C042FF6BB905FD230F27959B
:1010E000889400C000C0002C6BB906FD230F00C01F
:1010F000002C7BB900C041FF6BB92795889407FD90
:10110000230F00C000C0002C6BB92795889400C045
:10111000002C7BB900C040FF6BB9432F0111422F57
:101120009A0D00C000C0002C6BB900C000C0002C9C
:101130007BB900C047FF6BB932812227889400C079
:1011400000C0002C6BB931113C0F00C0002C7BB9E2
:1011500000C046FF6BB908F43FEFEB0DF11D00C076
:1011600000C0002C6BB9D0FC230F00C0002C7BB951
:1011700000C045FF6BB927958894D1FC230F00C0B0
:1011800000C0002C6BB92795889400C0002C7BB957
:1011900000C044FF6BB9D2FC230F2795889400C090
:1011A00000C0002C6BB9D3FC230F00C0002C7BB90E
:1011B00000C043FF6BB927958894D4FC230F00C06F
:1011C00000C0002C6BB92795889400C0002C7BB917
:1011D00000C042FF6BB9D5FC230F2795889400C04F
:1011E00000C0002C6BB9D6FC230F00C0002C7BB9CB
:1011F00000C041FF6BB927958894D7FC230F00C02E
:1012000000C0002C6BB92795889400C0002C7BB9D6
:1012100000C040FF6BB9432FD110422FC19500C0D1
:1012200000C0002C6BB9CE0D00C000C07BB900C05F
:1012300047FF6BB931812227889400C000C0002C81
:101240006BB93111380F00C0002C7BB900C046FFCC
:101250006BB908F43FEF8195889400C000C0002C62
:101260006BB910FD230F00C0002C7BB900C045FFF7
:101270006BB92795889411FD230F00C000C0002C86
:101280006BB92795889400C0002C7BB900C044FF3F
:101290006BB912FD230F2795889400C000C0002C65
:1012A0006BB913FD230F00C0002C7BB900C043FFB6
:1012B0006BB92795889414FD230F00C000C0002C43
:1012C0006BB92795889400C0002C7BB900C042FF01
:1012D0006BB915FD230F2795889400C000C0002C22
:1012E0006BB916FD230F00C0002C7BB900C041FF75
:1012F0006BB92795889417FD230F00C000C0002C00
:101300006BB92795889400C0002C7BB900C040FFC2
:101310006BB9432F1111422F8C0D00C000C0002C5F
:101320006BB9119709F086CE20EE31E0D2010E9410
:101330003C37DC01CB01F4E0B695A79597958795EE
:10134000FA95D1F730E020E0B901EAE94E9E040CAD
:10135000611D5E9E600D711D1124650D711D860F4E
:10136000971FA11DB11D893E43E09407A105B1055A
:1013700008F434C0885E9340A109B10942E0B695F3
:10138000A795979587954A95D1F747E0849F080ED2
:10139000211D949F200D311D1124290F311D6091B5
:1013A000040270E0860F971F820F931F4091C902BD
:1013B0005091CA026091CB027091CC02292F332741
:1013C000420F531F611D711D4093C9025093CA0201
:1013D0006093CB027093CC028093040278940E94B5
:1013E000A902F301708B6787DF91CF911F910F9155
:1013F000EF90DF90CF90BF90AF908F907F906F90E5
:101400005F904F900895549A0895EF92FF920F9332
:101410001F93CF93DF93CDB7DEB762970FB6F894E3
:10142000DEBF0FBECDBF7C01DC011C968C917A83A0
:1014300069835C834B835E834D830D871E872F8773
:10144000813001F5CE0101960E94730783E0888BFD
:101450001A8A198AD701ED91FC910484F585E02D53
:10146000BE016F5F7F4FC701099562960FB6F89472
:10147000DEBF0FBECDBFDF91CF911F910F91FF90C7
:10148000EF9008951C861B861A86198618861F827F
:10149000DDCFEF92FF920F931F93CF93DF93CDB7E2
:1014A000DEB762970FB6F894DEBF0FBECDBF7C01EA
:1014B000DC011C968C917A8369835C834B835E8309
:1014C0004D830D871E872F878130F9F4CE01019659
:1014D0000E947307188A1A8A198AD701ED91FC9124
:1014E0000484F585E02DBE016F5F7F4FC70109952C
:1014F00062960FB6F894DEBF0FBECDBFDF91CF91DD
:101500001F910F91FF90EF9008951C861B861A86FD
:10151000198618861F82DECF0E94480322E0660FDC
:10152000771F881F991F2A95D1F708950F931F934E
:10153000CF930E948C0A0091000210910102209129
:10154000020230910302601B710B820B930B653F0B
:10155000714081059105B8F0C091FF01CF5FC09344
:10156000FF010E948C0A6093000270930102809335
:10157000020290930302C53010F01092FF01809197
:10158000FF0180939002CF911F910F91089590E0F9
:1015900080E008954F925F926F927F928F929F9218
:1015A000AF92BF92CF92DF92EF92FF920F931F9371
:1015B000CF93DF9300D01F92CDB7DEB76A011982B7
:1015C0001A821B828823C9F18B01E1E0F0E0482EEA
:1015D000512C712C612CD8012D918D01222349F1C0
:1015E0007F01B1E0EB1AF108D601AE0DBF1D8C9062
:1015F0008820F9F030E050E040E02F5F3F4F4F4F40
:101600005F4FC301B2010E94F2369B01AC01912CE5
:10161000B12CA12CC501B4016F5F7F4F8F4F9F4F3D
:101620000E94F236A1E0B0E0AC0FBD1FAE0DBF1DB1
:101630008C933196E430F10571F669817A818B8162
:101640000F900F900F90DF91CF911F910F91FF900E
:10165000EF90DF90CF90BF90AF909F908F907F9052
:101660006F905F904F900895CF92DF92EF92FF922C
:101670000F931F93CF93DF93F82E8091FC039091EB
:10168000FD03A091FE03B091FF03892B8A2B8B2BC6
:10169000D9F00E94A90200914603109147032091BE
:1016A000480330914903601B710B820B930B00912F
:1016B000FC031091FD032091FE033091FF0360179E
:1016C000710782079307C8F20E94A902609346033C
:1016D000709347038093480390934903E091040477
:1016E000F0910504309759F04091000450910104A5
:1016F00060910204709103048F2D0995F82EC0911A
:101700004403D0914503209721F1EC848091FA03A2
:101710009091FB038436910508F41C86E881F981D9
:10172000C280D380AE01475F5F4FBE016A5F7F4FCB
:101730008F2D0E94CA0A8B01282F4D855E856A81F4
:101740007B81CE01F6010995EC860C80DD81C02DF0
:10175000DACF80914A0390914B039C012F5F3F4F5A
:1017600030934B0320934A03499754F0DF91CF9174
:101770001F910F91FF90EF90DF90CF900C94540346
:10178000DF91CF911F910F91FF90EF90DF90CF905D
:1017900008954093F1025093F2026093F302809116
:1017A000F9030E94340B60E070E0CB010E94CE028E
:1017B000A8950895AF92BF92CF92DF92EF92FF92D9
:1017C0000F931F93CF93DF936C01F62E8091FC0350
:1017D0009091FD03A091FE03B091FF03892B8A2B0A
:1017E0008B2BD9F00E94A902009146031091470368
:1017F0002091480330914903601B710B820B930BBE
:101800000091FC031091FD032091FE033091FF0332
:101810006017710782079307C8F20E94A9026093BC
:101820004603709347038093480390934903E091E4
:101830000404F0910504309759F040910004509150
:10184000010460910204709103048F2D0995F82E14
:10185000C0914403D0914503209719F1EC84809105
:10186000FA039091FB038436910508F41C86E88105
:10187000F981A080B180AE01475F5F4FBE016A5F12
:101880007F4F8F2D0E94CA0A4D855E858B01282FC0
:10189000B601CE01F5010995EC860C80DD81C02DE5
:1018A000DBCF80914A0390914B039C012F5F3F4F08
:1018B00030934B0320934A03499764F0DF91CF9113
:1018C0001F910F91FF90EF90DF90CF90BF90AF905E
:1018D0000C945403DF91CF911F910F91FF90EF90E3
:1018E000DF90CF90BF90AF9008950F931F93CF9349
:1018F000DF9300D01F92CDB7DEB719821A821B8208
:1019000060E0CE0101960E94DA0B00914403109131
:1019100045030115110591F0F8018281938100972B
:1019200049F025853685B901660F771F620F731F51
:101930000E940901F80104811581EBCF0F900F90EF
:101940000F90DF91CF911F910F910895FC01858534
:10195000968508950F931F93CF93DF9300D01F9226
:10196000CDB7DEB7AB0119821A821B82DC01ED9183
:10197000FC910190F081E02D00E010E020E0BE013C
:101980006F5F7F4F09950F900F900F90DF91CF9170
:101990001F910F9108954F925F926F927F928F9255
:1019A0009F92AF92BF92DF92EF92FF920F931F939D
:1019B000CF93DF938C01EB0188818B32D1F18D3293
:1019C000C9F52196EE24E394888190ED980F9A3022
:1019D00010F08E3289F560E070E0CB01FE012191BC
:1019E000A0ED8A2E820E39E0381508F440C06A391D
:1019F00029E97207820729E1920708F04DC0AAE0A1
:101A0000B0E09B01AC010E945D35912CB12CA12C62
:101A10002401350140945094609470944616570602
:101A200068067906C8F1680D791D8A1D9B1DEF01B6
:101A3000D5CF2196E12CC8CFF801108211821282F5
:101A4000138214821582168217821086C801DF91D4
:101A5000CF911F910F91FF90EF90DF90BF90AF90CB
:101A60009F908F907F906F905F904F90089521117D
:101A700013C0F80160837183828393830E941F34B3
:101A8000F801648375838683978387E0E11001C042
:101A900086E0F8018087DACFF12CEAE08E2E912CD7
:101AA000A12CB12C61157105F0E88F07910540F06C
:101AB000A50194010E94A735CA01B901F394F2CFA0
:101AC000FE01299130ED320F3A3010F4F394F8CF43
:101AD0002E32F1F4EF012196FE012196208150ED86
:101AE000D52ED20E29E02D1598F06C3C3CEC7307F6
:101AF0003CE08307910580F7AAE0B0E09B01AC01D0
:101B00000E945D356D0D711D811D911DFA94E4CF0C
:101B100020812F7DD0E0C0E0253409F04FC0218125
:101B20002D32A9F53296BB24B394DF01D0E0C0E09A
:101B30002F2D0F2C000C330B4AE0A42EFD01DD905D
:101B400040ED4D0D4A30A8F5AC9EA001AD9E500D64
:101B50001124CD2DDD0CDD0BE097C40FD51FAE0198
:101B6000420F531F473251054CF3BB20B9F080E0C0
:101B700090E0A0E0B0E8E11003C080E090E0DC017C
:101B8000F80184839583A683B78388E083CF2B32C3
:101B900019F03196B12CC9CF3296FCCF80E090E09D
:101BA000A0E8BFEFE110ECCF80E090E0A0E8BFE755
:101BB000E7CFBB2019F0D195C195D1092081211122
:101BC0003BCFCF0DD11DF7FCDA950E941F341C16B8
:101BD0001D06E4F4F12CC0FF0CC024E0F29EF001DD
:101BE0001124EE5BFE4F20813181428153810E949E
:101BF0008034D595C795F394209769F7E1109058F4
:101C0000F8016483758386839783BFCFD195C1958F
:101C1000D109F12C209791F3C0FF0CC024E0F29E73
:101C2000F0011124E65DFE4F208131814281538114
:101C30000E948034D595C795F394ECCF80339CF007
:101C40008A3324F08F3524F08B3724F481E0089513
:101C500081344CF08B35D4F393ED980F81E09230C2
:101C6000B0F380E008958B32B9F7F0CFFC018285A4
:101C7000811114C0A281B381848195812FEF3FEF40
:101C8000A817B90730F4CD010196938382832C9174
:101C900030E037FD20E0218781E08287818508954B
:101CA0001F93CF93DF93EC01CE010E94360E8B3051
:101CB0003CF489305CF48823E9F090E080E01CC0BB
:101CC000803221F08F3221F08D30B9F71A86ECCFB7
:101CD0001A86CE010E94360E8A3229F08F32D1F058
:101CE00082E090E009C01A8610E0CE010E94360E14
:101CF000811106C081E090E0DF91CF911F9108959E
:101D00008F3211F41111E2CF11E08A3209F010E0A4
:101D10001A86EBCF1A86CE010E94360E882351F325
:101D20008A30C1F7C1CFCF92DF92EF92FF92CF936B
:101D3000DF93CDB7DEB729970FB6F894DEBF0FBE9D
:101D4000CDBF009749F0FC0184818F77873040F444
:101D5000853068F48330E0F460E070E0CB010BC0C4
:101D60008830D1F7C080D180E280F38020C06081CC
:101D700071818281938129960FB6F894DEBF0FBEE0
:101D8000CDBFDF91CF91FF90EF90DF90CF9008957E
:101D900060817181CE0101960E94CB0C89858630CD
:101DA000F1F08830C9F6CD80DE80EF80F88420E045
:101DB00030E0A901C701B6010E94ED3687FDCCCF06
:101DC00020E030E040E85FE4C701B6010E941A3429
:101DD000181614F2C701B6010E94BE36CCCF698135
:101DE0007A818B819C81C7CFCF92DF92EF92FF9255
:101DF000CF93DF93CDB7DEB729970FB6F894DEBF48
:101E00000FBECDBF009749F0FC0184818F778730EA
:101E100030F4853058F4833000F580E011C088300C
:101E2000E1F7C080D180E280F38026C0808191817B
:101E3000A281B3818F3F9105A105B10509F068F733
:101E400029960FB6F894DEBF0FBECDBFDF91CF91BC
:101E5000FF90EF90DF90CF90089560817181CE0167
:101E600001960E94CB0C8985863001F18830A9F655
:101E7000CD80DE80EF80F88420E030E0A901C7014A
:101E8000B6010E94ED3687FDC8CF20E030E04FE775
:101E900053E4C701B6010E941A3418160CF4BDCFE2
:101EA000C701B6010E94BE36862FCACF89819A81AA
:101EB000AB81BC81BFCF8EE00E94970220915D056F
:101EC00030915E0528173907C0F48FE00E94970211
:101ED00020915D0530915E052817390770F480E187
:101EE0000E94970220915D0530915E052817390701
:101EF00020F410924A0580E0089581E080934A051D
:101F00000895FC0180819181892B21F460E070E0CB
:101F1000CB0108956FE87FE090E080E00895089598
:101F2000FC0184819581009799F02281338146815B
:101F300057812417350718F0158214820895A901D6
:101F40004F5F5F4F53834283820F931FFC01608377
:101F50000895DF92EF92FF920F931F93CF93DF9339
:101F6000CDB7DEB728970FB6F894DEBF0FBECDBF52
:101F70008C017B01DC011696ED91FC91228133816D
:101F80008481958193838283FA83E9831C821B82F7
:101F90003E832D83821B930B98878F83C8010E94F9
:101FA000360ED82EF8011286C8010E94360ED801CE
:101FB0001A961C92D816A9F1811110C081E090E008
:101FC00028960FB6F894DEBF0FBECDBFDF91CF913C
:101FD0001F910F91FF90EF90DF9008958C35D9F409
:101FE000C8010E94360E882349F3853719F484E02E
:101FF00090E0E6CFE4EAF1E09081992351F0891373
:1020000006C08181811105C082E090E0D9CF32966F
:10201000F3CFF8011286682FCE0101960E94900F2F
:10202000C3CF60E0CE0101960E94900F8D819E810A
:10203000892B79F0E981FA818B819C812F81388508
:10204000AC01421B530B82819381840F951F9383B4
:1020500082838D819E81D7018D939C93892B19F466
:1020600083E090E0ADCF90E080E0AACFCF93DF9304
:10207000DC01EB01EC81FD818A819B810896E817E8
:10208000F90730F4F0E0E0E0CF01DF91CF9108955F
:102090003897FD83EC833097A9F31296CD91DC91AC
:1020A0001397209791F0CF018C1B9D0B23E0959502
:1020B00087952A95E1F78D831396FC93EE931297FB
:1020C0001582148217821682DFCF1196FC93EE934D
:1020D000F3CF8F929F92AF92BF92CF92DF92EF9207
:1020E000FF920F931F93CF93DF93CDB7DEB7CD54FD
:1020F000D1090FB6F894DEBF0FBECDBF8C016B01C6
:102100000E94500E2E969FAF8EAF2E97CE01845B0D
:102110009F4F0E94810F672B09F08BC280FD89C2FF
:10212000C8010E94360E873209F4EDC11CF58232D7
:1021300009F4E9C1C8010E94360EF82EAE014F5FC6
:102140005F4F4A01E12C5A018F2D0E941E0E8823F9
:1021500009F4F6C15FE3E51609F4F2C1D8011A9655
:102160001C92E394F401F1924F01C8010E94360ED3
:10217000F82EEACF8B3509F468C08B37D9F6D60133
:1021800014968C9114978078806214968C9314978F
:1021900011961C921E9213961C921E921297F80191
:1021A0008085882309F4ACC1C8010E94360E8B37A4
:1021B00009F065C0D8011A961C92C8010E94500E01
:1021C0002C969FAF8EAF2C97CE01865B9F4F0E94BF
:1021D000810F672B09F017C180FD15C1C8010E944E
:1021E000360E8D3709F464C0D8016D917C91C6011B
:1021F0000E9436105C01892B09F47EC1C8010E943F
:10220000360E873209F496C0823209F493C0D801A1
:102210001696ED91FC91228133818481958193837F
:102220008283FA83E9831C821B823E832D83821B77
:10223000930B98878F83C8010E94360EF82E811168
:10224000FDC0EE24E394F12C7CC0D60114968C9151
:1022500014978078806414968C93149711961C922E
:102260001E9213961C921E921297F8018085882365
:1022700009F446C1C8010E94360E8B3519F082E080
:10228000E82E3CC1D8011A961C92C8010E94500E3B
:102290009A838983CE0101960E94810F672B09F0F2
:1022A00046C080FD44C0C8010E94360E8D3591F4B1
:1022B000F8011286E12C22C180FD39C0C8010E94BC
:1022C000360E8D35A9F3C8010E94360E8C32B9F650
:1022D000F8011286D8016D917C91C6010E943610DA
:1022E000BC01892B09F408C1F801908591509087B1
:1022F000C8010E9469109A838983D80118968C912D
:1023000018978F5F18968C93CE0101960E94810FCB
:10231000672B69F480FD0BC0C8010E94500E9A83A0
:102320008983CE0101960E94810F672B29F2E980F3
:10233000FA806FC0BE016F5B7F4FC8010E94A90F7A
:102340007C012B96EFAE2B972C96FFAE2C97CE01EF
:10235000865B9F4F0E94810F672B09F05AC080FD5A
:1023600058C023962EAD3FAD2397D50114968C917E
:102370001497806814968C93149717963C932E9319
:102380001697C8010E94500E2C969FAF8EAF2C97C7
:10239000CE01865B9F4F0E94810F672BA1F580FDC8
:1023A00032C0C8010E94360E8A3309F068CFF801A6
:1023B0001286808581508087B501C8010E9469100E
:1023C0002C969FAF8EAF2C97D80118968C911897AA
:1023D0008F5F18968C93CE01865B9F4F0E94810F72
:1023E000672B89F480FD0FC0C8010E94500E2C9607
:1023F0009FAF8EAF2C97CE01865B9F4F0E94810FBF
:10240000672B09F456C02B96EFAC2B972C96FFAC9C
:102410002C97C701C35BDF4F0FB6F894DEBF0FBE2A
:10242000CDBFDF91CF911F910F91FF90EF90DF9083
:10243000CF90BF90AF909F908F9008950E941E0EF6
:1024400042E0E42E882309F4FECEF80112866F2DB7
:10245000CE0101960E94900FC8010E94360EF82E00
:102460000E941E0E8111F1CF60E0CE0101960E9404
:10247000900F8D819E81892B79F0E981FA818B8182
:102480009C812F813885AC01421B530B8281938143
:10249000840F951F938382838D819E8123969FAFA6
:1024A0008EAF2397E12C892B09F0CDCE33E0E32EBC
:1024B000CACE80FDA8CFC8010E94360E8D3709F420
:1024C000F7CEC8010E94360E8C3209F0D8CED80162
:1024D0001A961C92C8010E94500E2C969FAF8EAF88
:1024E0002C97CE01865B9F4F0E94810F672B09F0CE
:1024F0008ACF80FF79CE87CF23E0E22EF12C89CFDF
:1025000095E0E92EFBCFBE016F5B7F4FC8010E94B3
:10251000A90F9A838983CE0101960E94810F672BB0
:1025200009F005CF80FD03CF23962EAD3FAD239755
:10253000F601848180788460848331832083BACEDD
:10254000F501EE0DF11D108289818437B9F4D601B1
:1025500014968C9114978078856014968C9381E002
:1025600090E0A0E0B0E0F60180839183A283B38382
:10257000F12CF4E0EF121CC080E01AC0863689F41A
:10258000D60114968C9114978078856014968C935C
:10259000F601108211821282138281E0F12CF5E0A3
:1025A000E9CF8E3639F481E0F12C44E0E41621F3D2
:1025B000E82E2FCFB501CE018F5B9F4F0E94CB0C31
:1025C00025964CAD5DAD6EAD7FAD25972A968FAD4E
:1025D0002A97873061F08830C1F0863009F04FCEFD
:1025E000D60114968C9114978078866006C0D60127
:1025F00014968C9114978078876014968C93F601CA
:10260000408351836283738355CE29964CAD5DAD73
:102610006EAD7FAD2997D60114968C911497807872
:10262000886014968C93F601408351836283738390
:1026300041CE2D968FAD2D972E969FAD2E97EACE3B
:102640002F923F924F925F926F927F928F929F92C2
:10265000AF92BF92CF92DF92EF92FF920F931F93B0
:10266000CF93DF93CDB7DEB72B970FB6F894DEBFCD
:102670000FBECDBFE82ED62EF42E3D832C8318013D
:102680000E9448034B015C012E2D220F2B830FEF7C
:102690000F0DC12C1B8611E04F2D50E05A8349834A
:1026A000C101B0E0A0E08E839F83A887B987109313
:1026B0002003E092420310922103109243036D2DF8
:1026C0008DEE93E00E94220781E00E94DB051093CB
:1026D000200310922103109243030E94A9022B01B0
:1026E0003C0180911A03811169C091E0900F9A8793
:1026F00010931A0310931903AFEFA09318031092CD
:102700001703009316031093F5028091F502BB8125
:102710008B2B8093F5028091F402813009F091C0F7
:102720001092F4020E94A9022B013C018091F50253
:102730008093BB0080911C0390911D03A0911E0308
:10274000B0911F03892B8A2B8B2BA1F00E94A90229
:1027500020911C0330911D0340911E0350911F03D3
:102760006419750986099709261737074807590715
:1027700008F445C08091BC0083FDD8CF25EC2093A0
:10278000BC000E94A9022B013C0180911A038130F8
:1027900009F45BC0809117034A85841718F450919F
:1027A00017035A87E6EFF2E0A7E0B2E080E09A85EF
:1027B000891751F191919D938F5FF9CF80911C03FF
:1027C00090911D03A0911E03B0911F03892B8A2BAA
:1027D0008B2B09F486CF0E94A90220911C03309113
:1027E0001D0340911E0350911F036419750986094A
:1027F0009709261737074807590708F072CF8091C5
:102800001B030E94BA051A8610927002AA85A09333
:102810006F0280917002BA85B81709F448C021147C
:102820003104A9F58DEE93E00E94DB06EC81FD8179
:102830002B85E20FF11D27FDFA9580832F5F2B87F3
:10284000E8CF35EE3093BC009CCF80911C03909173
:102850001D03A0911E03B0911F03892B8A2B8B2B84
:1028600009F493CF0E94A90220911C0330911D030B
:1028700040911E0350911F03641975098609970939
:10288000261737074807590708F07FCFB8CF0E94AF
:102890004803681979098A099B092E813F81488577
:1028A0005985621773078407950708F4BBCF8F2DEE
:1028B0008C0D0F19CC24C3948F1508F4F8CE211475
:1028C0003104D9F00E944803AB01BC0148195909F1
:1028D0006A097B09C101B0E0A0E0481759076A07FF
:1028E0007B0758F03B85832F330F990B49815A8121
:1028F0008417950714F45FEF5B878B852B960FB6D3
:10290000F894DEBF0FBECDBFDF91CF911F910F9125
:10291000FF90EF90DF90CF90BF90AF909F908F90FF
:102920007F906F905F904F903F902F9008950F93FE
:102930001F93CF93DF93CCE1D4E008EE13E02DE1B9
:1029400034E042E067E488810E94201389819A8103
:10295000982789279827DF91CF911F910F9108958C
:10296000CF93DF93C5E6D0E02197F9F00E9497144A
:102970009093220580932105092E000CAA0BBB0B16
:1029800040913305509134056091350570913605BD
:10299000840F951FA61FB71F8093330590933405AE
:1029A000A0933505B0933605DFCF60913305709164
:1029B0003405809135059091360524E630E040E0FD
:1029C00050E00E943E352093330530933405409308
:1029D00035055093360580E0DF91CF9108952F9211
:1029E0003F924F925F926F927F928F929F92AF929F
:1029F000BF92CF92DF92EF92FF920F931F93CF93EC
:102A0000DF9300D000D000D01F92CDB7DEB71C01FD
:102A1000162F4D832F83B0900001B61609F49AC08B
:102A200020E041E060E081E00E9472020E944803E1
:102A30000E941F3420E030E040E850E40E948034DF
:102A40000E94BE366B017C0180912705909128057C
:102A5000A0912905B0912A05A7019601281B390BE1
:102A60004A0B5B0BCA01B9010E941F3420E030E021
:102A70004AE754E40E94453660932B0570932C0579
:102A800080932D0590932E05C0922705D09228059E
:102A9000E0922905F0922A050E949714909322054E
:102AA00080932105092E000CAA0BBB0B4091330526
:102AB0005091340560913505709136056A017B01AE
:102AC000C81AD90AEA0AFB0AC701B6010E942134D2
:102AD00020E030E043E053E40E94453620912B058E
:102AE00030912C0540912D0550912E050E94803487
:102AF0006B017C019F772DEC3CEC4CE45DE30E9484
:102B00001A3487FDB2C020912F05309130054091D5
:102B1000310550913205C701B6010E94D935609345
:102B20002F057093300580933105909332056093A3
:102B3000F6017093F7018093F8019093F9010E94D8
:102B40008C0A6093FA017093FB018093FC019093CF
:102B5000FD0114C00E948C0AC090FA01D090FB01C4
:102B6000E090FC01F090FD016C197D098E099F0930
:102B70006B3071058105910508F052CFC090F601C8
:102B8000D090F701E090F801F090F901B11204C083
:102B900080914A0581110AC010930001C092F20190
:102BA000D092F301E092F401F092F5012091F2014C
:102BB0003091F3014091F4015091F50129833A835A
:102BC0004B835C833F81632F70E090E080E00E9444
:102BD00021342B013C014D81642F70E090E080E0B6
:102BE0000E9421344B015C0129813A814B815C8137
:102BF000C701B6010E94D835A30192010E9480341A
:102C0000A50194010E94D9350E94B73610E006173D
:102C100017077CF17E836D836A30710524F4AAE086
:102C2000B0E0BE83AD83A701960169817A818B8173
:102C30009C810E94D835A30192010E948034A50195
:102C400094010E94D9350E94B7360617170734F051
:102C50008B016A30710514F40AE010E0232861F05A
:102C60002D8140E0602F80E00BC0C12CD12C76017B
:102C70004ACF1E830D83D7CF202F41E06D8181E0A5
:102C800027960FB6F894DEBF0FBECDBFDF91CF9170
:102C90001F910F91FF90EF90DF90CF90BF90AF907A
:102CA0009F908F907F906F905F904F903F902F906C
:102CB0000C9472020F93A091D302B091D402AD0193
:102CC000425051090FEF2AE04A30510540F4FA0111
:102CD000E05EFE4F20814A5E5E4FFA01008189303E
:102CE000910508F062C0FC01E858F94E0C943637A3
:102CF00081169216A016A716B016B616BC16C516E3
:102D0000CE16119719F4262F41E01FC0462F60916F
:102D1000FE0190E080E00E94EF1481E08093FE01CC
:102D20000F910895119719F4262F40E015C0462FF2
:102D30006091FE0181E090E00E94EF1482E0EECF0E
:102D400083E08093FE01262F40E081E006C084E00E
:102D50008093FE01262F41E080E00F910C947202D7
:102D600085E08093FE01262F2695CECF86E08093C6
:102D7000FE01262F2695D9CF87E08093FE01862F6E
:102D80008695262F41E0682FE0CF88E08093FE01F2
:102D9000862F8695262F40E0682FDECF89E080932E
:102DA000FE0120E041E060E0D0CF8AE0B7CF823082
:102DB00069F018F4813031F00895833051F0843097
:102DC00059F0089582E090E00C945A1683E090E068
:102DD000FBCF90E080E0F8CF81E090E0F5CFBF92AC
:102DE000CF92DF92EF92FF920F931F93CF93DF93D7
:102DF00000D0CDB7DEB7F82EE62EC42EB22ED02EE0
:102E000008EE13E09E012E5F3F4F41E00E94201329
:102E1000882399F18C2D8B19990BAC014F5F5F4F73
:102E200081E090E002C0880F991FBA94E2F7019701
:102E3000042E01C0880F0A94EAF70D2D01C0000F7F
:102E40004A95EAF7982F90952A8192238023892B1F
:102E50008A838983AE014F5F5F4F6E2D8F2D0E9455
:102E600051070F900F90DF91CF911F910F91FF901D
:102E7000EF90DF90CF90BF90089580E0F2CFCF9396
:102E8000DF9300D01F92CDB7DEB7833021F08430BE
:102E9000C9F0811111C090E0A0E0942BA62BA9836A
:102EA0009A832B836091F903CE0101960E94DA0B7D
:102EB0008091F9030E94340B0F900F900F90DF91D7
:102EC000CF91089590E0A0E0942BA62BA093F1025F
:102ED0009093F2022093F302EBCFFC0101900020CB
:102EE000E9F73197AF01481B590BBC0180E593E02E
:102EF0000C945F040F931F93CF93DF93EC0160E07A
:102F00008DE00E943E0183E090E00197F1F761E0DF
:102F10008DE00E943E0183E290E00197F1F760E0CE
:102F20008DE00E943E01EAEBF0E06491E6EAF0E019
:102F3000E491F0E0EE0FFF1FE057FF4F8591949171
:102F400000E412E42FE030E0462F0E94CB2161150F
:102F500071058105910529F06F5F7F4F8F4F9F4F5E
:102F60009F70CB016AE370E00E940E3767397105EC
:102F700048F086E990E099838883DF91CF911F9193
:102F80000F91089579836883F8CF0E945B390F937E
:102F90001F93CF93DF93EC0188819981009759F0BB
:102FA0002A813B812617370730F081E0DF91CF91EE
:102FB0001F910F9108958B016F5F7F4F0E949E3884
:102FC000009759F0998388831B830A832C813D8164
:102FD000232B59F7FC011082E8CF80E0E7CFEF9276
:102FE000FF920F931F93CF93DF936115710541F407
:102FF00080E0DF91CF911F910F91FF90EF900895A6
:1030000041155105B1F07B01EC010C811D81040FCC
:10301000151FB8010E94C717882351F328813981F1
:103020008C819D81B701820F931F0E9472391D838D
:103030000C8381E0DECFCF93DF93EC01888199810F
:10304000009711F00E941538198218821D821C8287
:103050001B821A82DF91CF910895CF93DF93EC0109
:103060004091560550915705609152057091530556
:103070000E94EF17811103C0CE010E941B18CE01E0
:10308000DF91CF9108950F931F93CF93DF9300D0DB
:10309000CDB7DEB78C0169831A8241E050E0BE01F2
:1030A0006F5F7F4F0E94EF17811103C0C8010E941C
:1030B0001B18C8010F900F90DF91CF911F910F91B6
:1030C0000895CF93DF93EC01FB0101900020E9F715
:1030D0003197AF01461B570B0E94EF17811103C0B8
:1030E000CE010E941B18CE01DF91CF910895EF927F
:1030F000FF920F931F93CF93DF93EC017B018A0123
:10310000BA010E94C71781110BC0CE010E941B1883
:10311000CE01DF91CF911F910F91FF90EF90089515
:103120001D830C83B701888199810E947239F0CF89
:10313000FB0101900020E9F73197AF01461B570BC7
:103140000C947718CF93DF9300D0CDB7DEB7FC0196
:103150001182108213821282158214822BE7298336
:103160001A82BE016F5F7F4F0E9498180F900F90D8
:10317000DF91CF910895FC0180819181009711F03A
:103180000C94153808958DED92E00C94BB1885EDE4
:103190008093BC0080911C0390911D03A0911E039D
:1031A000B0911F030796A11DB11D23E0B695A79509
:1031B000979587952A95D1F72091BC0024FD03C0EF
:1031C00010921A03089540911C0350911D036091C1
:1031D0001E0370911F03452B462B472B69F3009765
:1031E000A105B10541F025E32A95F1F7000001970B
:1031F000A109B109E1CF80911B030C94BA050F938B
:103200001F93CF93DF93FC01248125FF1FC08B0107
:10321000C081D1812097D1F06E817F8160177107C5
:10322000E1F00115110541F06115710529F0C801A2
:103230000E946939882389F08D81882339F0F8E06C
:103240008F02C0011124C80FD91FE4CF80E090E0A5
:10325000DF91CF911F910F910895CE01F9CFCF92B9
:10326000DF92EF92FF920F931F93CF93DF93EC01C6
:10327000CA0108960E94FF188C01009709F463C0E8
:10328000FC0184818F77873009F447C0883091F042
:10329000863009F058C0208131812C173D070CF48D
:1032A0004FC091E080E0C217D3070CF090E0292FC7
:1032B000382F26C0BE01DD0F880B990B0E942134E8
:1032C0009B01AC01F80160817181828193810E9430
:1032D000D8356B017C0120E030E0A9010E941A344E
:1032E00087FD2EC0D1E0C0E020E030E0A901C70199
:1032F000B6010E94ED3618160CF0D0E02D2F3C2FB1
:1033000081E0232B09F080E0DF91CF911F910F9195
:10331000FF90EF90DF90CF90089560817181C60F8C
:10332000D71F2FEF3FEFD7FD07C091E080E0CD2BF7
:1033300009F490E0292F382F319521953109E0CFFC
:103340002FEF3FEFDDCF21E030E0DACF8F929F9279
:10335000AF92BF92CF92DF92EF92FF920F931F93A3
:10336000CF93DF93CDB7DEB7C85ED1090FB6F8941F
:10337000DEBF0FBECDBFCE010E969A8389839C839C
:103380008B838E010A521F4F1E830D8318870F8374
:103390008D8580788D872091E1023091E2028091C5
:1033A000DD029091DE02009711F48EEA91E0AE0109
:1033B0004F5F5F4F6A01F80151834083938382839B
:1033C000820F931F95838483578346838AE0808787
:1033D0001286BE01675F7F4FC8010E946910CF51FE
:1033E000DF4F99838883C15ED040CE018F519F4FBC
:1033F0000E94810F672BB1F480FD14C0F801818514
:10340000882381F08D85982F907661F48F77835093
:10341000823040F082E090E0CF51DF4F9983888383
:10342000C15ED040CF51DF4F88819981C15ED040CD
:10343000C951DF4F99838883C75ED0406EEA71E03F
:103440008DED92E00E949818CE0189519F4F0E9405
:10345000810F672B09F057C080FD55C0CE018951FF
:103460009F4F0E94810F672B09F04DC07C01F1E056
:10347000EF22FF2480FD47C06FEA71E0CE0109967C
:103480000E94FF18FC01892B59F094819F77973097
:1034900008F04DC0953008F054C0933008F06EC06D
:1034A00061EB71E0CE0109960E94FF18FC01892BA7
:1034B00009F49EC094819F779350923008F098C091
:1034C000608171816115710509F492C082E595E012
:1034D0000E949818F5E1EF16F10409F42AC20CF0E5
:1034E000B6C044E0E416F10409F490C10CF085C0C4
:1034F00082E0E816F10409F439C10CF06CC1EA94D9
:10350000EF2809F4FFC0C851DF4F0FB6F894DEBFB3
:103510000FBECDBFDF91CF911F910F91FF90EF9024
:10352000DF90CF90BF90AF909F908F90089597308D
:10353000A9F0983009F0B4CF80809180A280B38048
:103540003CC080819181A281B381811520E89207DE
:10355000A105B10508F0A4CF7C01A2CF80819181A3
:10356000A281B381813040E89407A105B10508F03C
:1035700097CFEE24FF24E81AF90A92CF6081718177
:10358000C8010E94CB0CF80180819181A281B38196
:103590002085273031F0283061F0263009F080CFC7
:1035A000D4CF8130F0E89F07A105B10508F078CFAE
:1035B000E0CF84809580A680B78020E030E040E0B6
:1035C00057ECC501B4010E94ED3687FD69CF20E0BC
:1035D0003EEF4FEF56E4C501B4010E941A341816AD
:1035E0000CF45ECFC501B4010E94B7367B0158CF01
:1035F00082E595E00E941B186DCF27E0E216F104EA
:1036000009F41FC148E0E416F10409F463C155E070
:10361000E516F10409F077CF8DE090E09093D402A5
:103620008093D30263EB71E0CE0109960E94FF18EC
:103630000E94F40E80935F0566EB71E0CE0109965F
:103640000E94FF180E94F40E809360057FC085E6FB
:10365000E816F10409F430C2BCF4F7E1EF16F10406
:1036600009F41CC20CF4CDC187E090E044E6E416F6
:10367000F10409F048CF9093D4028093D30288EDEF
:1036800091E00E946D173FCF59E6E516F10409F469
:1036900038C23CF5E6E6EE16F10409F034CF84E0DA
:1036A00090E09093D4028093D30263EB71E0CE015B
:1036B00009960E94FF180E94F40E809358058150CD
:1036C000883008F0DAC2E82FF0E0E759F44E0C94A5
:1036D00036371F1E241E2B1E2E1E311E341E371E73
:1036E0003A1EFAE6EF16F10409F430C22EE6E216AD
:1036F000F10409F008CF88E090E09093D402809321
:10370000D30224C089E090E09093D4028093D30246
:1037100063EB71E0CE0109960E94FF180E94F40E3F
:103720008093610566EB71E0CE0109960E94FF1857
:103730000E94F40E8093630569EB71E0CE01099657
:103740000E94FF180E94F40E80936205C8010E9437
:10375000A218C8010E942D186CEB71E00E9461183C
:103760000E948C04C8010E94BB18CDCE8AE090E074
:103770009093D4028093D30263EB71E0CE0109965B
:103780000E94FF180E94F40E8093680566EB71E0BA
:10379000CE0109960E94FF180E94F40E80936905DD
:1037A00061EC71E0CE0109960E94FF180E94930E11
:1037B00060936A0570936B0580936C0590936D051B
:1037C0000E948C0A6093D5027093D6028093D70230
:1037D0009093D80298CE8BE090E09093D40280939F
:1037E000D30263EB71E0CE0109960E94FF180E949C
:1037F000F40E8093680566EB71E0CE0109960E9495
:10380000FF180E94F40E80936905A0CF8CE090E031
:103810009093D4028093D30263EB71E0CE010996BA
:103820000E94FF180E94F40E80936E0566EB71E013
:10383000CE0109960E94FF180E94F40E80936F0536
:1038400085CF8EE090E09093D4028093D30263EB17
:1038500071E0CE0109960E94FF180E94F40E809339
:10386000770566EB71E0CE0109960E94FF180E9471
:10387000F40E8093780569EB71E0CE0109960E9401
:10388000FF180E94F40E8093790563EC71E0CE017D
:1038900009960E94FF180E94F40E80937A0561EC4D
:1038A00071E0CE0109960E94FF180E94930E60936A
:1038B0007B0570937C0580937D0590937E050E9427
:1038C0008C0A6093D9027093DA028093DB029093A2
:1038D000DC0219CE8FE090E09093D4028093D30263
:1038E00063EB71E0CE0109960E94FF180E94F40E6E
:1038F0008093770566EB71E0CE0109960E94FF1870
:103900000E94F40E8093780569EB71E0CE01099670
:103910000E94FF180E94F40E8093790563EC71E019
:10392000CE0109960E94FF180E94F40E80937A053A
:103930000DCF63EB71E0CE0109960E94FF180E9443
:10394000F40EF82E8DE395E00E947A174091500511
:1039500050915105052E000C660B770B80913D05AB
:1039600090913E05B0E0A0E021E0481759076A07B2
:103970007B070CF420E020934605E1E0FE120FC027
:10398000481759076A077B070CF48DC0C8010E94CD
:10399000A218C8010E942D1866EC71E0DFCEF2E09B
:1039A000FF12B1CD80913D0590913E059F938F937D
:1039B00085ED91E09F938F931F930F930E94793928
:1039C000CE018F519F4F0E94A218CE018F519F4F61
:1039D0000E942D186FE50E944318B8010E946118DB
:1039E0006DE70E9443180E948C04CE018F519F4FB7
:1039F0000E94BB180F900F900F900F900F900F9098
:103A000082CD63EB71E0CE0109960E94FF180E94FF
:103A1000F40E811135C080913F05909140059F9330
:103A20008F9385ED91E09F938F931F930F930E9447
:103A30007939CE018F519F4F0E94A218CE018F512C
:103A40009F4F0E942D186FE50E944318B8010E94F5
:103A500061186DE70E9443180E948C04CE018F51BB
:103A60009F4F0E94BB180F900F900F900F900F90D8
:103A70000F9086E090E09093D4028093D30243CDE0
:103A8000813029F48091410590914205C8CF823060
:103A900081F78091430590914405C1CF80914A05FB
:103AA000882309F473CFC8010E94A218C8010E949C
:103AB0002D186DEC71E052CEA60163EB71E081E050
:103AC00090E00E942F19882319F081E090E0D3CD77
:103AD000A60163EB71E082E090E00E942F19882339
:103AE00019F082E090E0C7CDA60163EB71E083E0BE
:103AF00090E00E942F19882309F4C1CD83E090E063
:103B0000BACDA60163EB71E081E090E00E942F192D
:103B1000882321F080918C058A3F70F0A60163EB29
:103B200071E082E090E00E942F19811109C080911C
:103B30008C058093F903E7CC8B5F80938C05F7CFDE
:103B400080918C05882399F38550F7CF63EB71E062
:103B5000CE0109960E94FF180E94F40E9FEF980F65
:103B6000953008F0D0CC833028F0853098F185303E
:103B700009F45DC020910E0130910F01813039F5BB
:103B80002A50310930930F0120930E0180910E01CC
:103B900090910F014F9734F48EE190E090930F01D4
:103BA00080930E0180910E0190910F018E36910548
:103BB00034F08EE690E090930F0180930E016091B7
:103BC0000E0170910F0182E00E9401039CCC265FE0
:103BD0003F4FD8CF20910C0130910D01833021F55A
:103BE000265F3F4F30930D0120930C0180910C0113
:103BF00090910D011816190624F010920D011092E3
:103C00000C0180910C0190910D01843B910534F0E1
:103C100084EB90E090930D0180930C0160910C0176
:103C200070910D0181E0D0CF2A503109DBCF6AE5D8
:103C300070E082E00E9401036AE570E0F3CF109229
:103C4000D2021092D1025FCC81E090E09093D20238
:103C50008093D10258CC82E090E0F8CF83E090E0EE
:103C6000F5CF84E090E0F2CF85E090E0EFCF86E002
:103C700090E0ECCF87E090E0E9CF88E090E0E6CFFD
:103C80001F920F920FB60F9211242F933F938F9391
:103C90009F93AF93BF938091C9029091CA02A09164
:103CA000CB02B091CC023091C80223E0230F2D3714
:103CB00058F50196A11DB11D2093C8028093C90239
:103CC0009093CA02A093CB02B093CC028091CD0214
:103CD0009091CE02A091CF02B091D0020196A11D89
:103CE000B11D8093CD029093CE02A093CF02B093EA
:103CF000D002BF91AF919F918F913F912F910F90E3
:103D00000FBE0F901F90189526E8230F0296A11D55
:103D1000B11DD2CF1F920F920FB60F9211242F9385
:103D20003F934F935F936F937F938F939F93AF9343
:103D3000BF93EF93FF93E0910301F0910401099584
:103D4000FF91EF91BF91AF919F918F917F916F9173
:103D50005F914F913F912F910F900FBE0F901F9049
:103D600018951F920F920FB60F9211242F933F9325
:103D70004F935F936F937F938F939F93AF93BF9373
:103D8000EF93FF93E0910101F09102010995FF91FA
:103D9000EF91BF91AF919F918F917F916F915F91C3
:103DA0004F913F912F910F900FBE0F901F9018953C
:103DB0001F920F920FB60F9211242F933F934F93A0
:103DC0005F936F937F938F939F93AF93BF93EF9383
:103DD000FF9380E593E00E94E604FF91EF91BF918D
:103DE000AF919F918F917F916F915F914F913F9193
:103DF0002F910F900FBE0F901F9018951F920F924A
:103E00000FB60F9211242F938F939F93EF93FF93ED
:103E1000E0916003F09161038081E0916603F0918D
:103E2000670382FD1BC09081809169038F5F8F7350
:103E300020916A03821741F0E0916903F0E0E05BB2
:103E4000FC4F958F80936903FF91EF919F918F9124
:103E50002F910F900FBE0F901F9018958081F4CF77
:103E60001F920F920FB60F9211242F933F934F93EF
:103E70005F936F937F938F939F93AF93BF93EF93D2
:103E8000FF938091B900887F803609F44AC0F0F52D
:103E9000883209F4A7C018F5803109F49BC0B8F442
:103EA000882309F4F9C0883009F494C0FF91EF9198
:103EB000BF91AF919F918F917F916F915F914F9142
:103EC0003F912F910F900FBE0F901F901895883142
:103ED00009F488C0803251F78093180314C08034ED
:103EE00009F49DC040F48033B9F38833F9F6809328
:103EF000180385ECB0C0803509F485C0883509F415
:103F000096C0883499F60E94C718D0CF883909F432
:103F10008CC038F5883729F050F4883611F0803796
:103F200029F683E080931A0310926A0257C08838FA
:103F300009F47BC0803919F0803809F0B7CF80913F
:103F40006A02803208F071C0E0916A0281E08E0F4F
:103F500080936A028091BB00F0E0E65BFD4F8083B6
:103F60003DC0803B39F0E0F4803A09F479C0883AEA
:103F700009F09CCF84E080931A03109249021092BA
:103F80004802E0916D02F0916E020995809148021D
:103F900081110FC081E0809348021092280209C06D
:103FA000803C09F4A6CF883C09F4A3CF883B09F0F4
:103FB0007DCFE091490281E08E0F80934902F0E0CD
:103FC000E85DFD4F80818093BB0090914902809114
:103FD000480229C08091F5028093BB0085EC809354
:103FE000BC0064CF9091170380911603981758F581
:103FF000E091170381E08E0F80931703F0E0EA5001
:10400000FD4F8081E9CFE091170381E08E0F80930F
:1040100017038091BB00F0E0EA50FD4F8083909140
:104020001703809116039817C8F285E8D8CFE0915E
:10403000170381E08E0F809317038091BB00F0E09F
:10404000EA50FD4F80838091190381115CCF81E09C
:104050008093F40284EA8093BC0010921A0326CF66
:1040600085EC8093BC0010921A0380916A02803222
:1040700030F4E0916A02F0E0E65BFD4F108260915F
:104080006A0270E0E0916B02F0916C028AE492E0C7
:10409000099510926A020ACF1092180334CF1F922A
:1040A0000F920FB60F9211242F933F934F935F936C
:1040B0006F937F938F939F93AF93BF93CF93DF9330
:1040C000EF93FF9380910602C0911D05D0E087FF1A
:1040D00024C01092850010928400809106028F5FA8
:1040E0008093060280910602082E000C990B8C1713
:1040F0009D0724F4809106028C30C4F180918400E5
:1041000090918500049680349C4908F47AC080918F
:10411000840090918500049676C080910602082E56
:10412000000C990B8C179D07C4F6E09106028E2FA8
:10413000EE0F990BFC01EE0FFF1FE80FF91FE75080
:10414000FB4F808186FFC9CFE09106028E2FEE0FD4
:10415000990BFC01EE0FFF1FE80FF91FE750FB4F13
:10416000808160E08F730E943E01B7CF2091840070
:1041700030918500E09106028E2FEE0F990BFC0125
:10418000EE0FFF1FE80FF91FE750FB4F818192816F
:10419000820F931F9093890080938800E09106021C
:1041A0008E2FEE0F990BFC01EE0FFF1FE80FF91F8A
:1041B000E750FB4F808186FF11C0E09106028E2FF1
:1041C000EE0F990BFC01EE0FFF1FE80FF91FE750F0
:1041D000FB4F808161E08F730E943E01FF91EF9160
:1041E000DF91CF91BF91AF919F918F917F916F910F
:1041F0005F914F913F912F910F900FBE0F901F90A5
:10420000189580E49CE990938900809388008FEF53
:1042100080930602E3CF1F920F920FB60F921124E4
:104220002F933F934F935F936F937F938F939F93BE
:10423000AF93BF93CF93DF93EF93FF9320912B0422
:1042400030E0F901E458FF4F8491F901E255FF4F46
:10425000D491F901E656FF4FC491CC2379F0811136
:104260000E941501EC2FF0E0EE0FFF1FE057FF4F0B
:10427000A591B491EC91ED2381E009F480E02091C7
:104280002E0430912F042F5F3F4F30932F04209343
:104290002E049091F804943618F095E090932C0435
:1042A00090912C04933009F44CC0E0F4923011F159
:1042B00090912D04992319F081116BC02D9AFF91D3
:1042C000EF91DF91CF91BF91AF919F918F917F91AE
:1042D0006F915F914F913F912F910F900FBE0F9073
:1042E0001F901895943009F448C0953009F7811152
:1042F000DFCF09C08111DCCF20912E0430912F0433
:104300002436310528F410922F0410922E04D0CFB9
:104310001092F804E091F80491E09E0F9093F80455
:10432000F0E020912E0430912F04EE0FFF1FE55D89
:10433000FB4F3683258310922F0410922E0493E0B6
:1043400019C0813009F0B4CFE091F80491E09E0FDC
:104350009093F804F0E020912E0430912F04EE0F9A
:10436000FF1FE55DFB4F3683258310922F041092CB
:104370002E0494E090932C049BCF882359F2209133
:104380002E0430912F042536310508F491CF95E0A5
:10439000F1CF2D9894CFCF92DF92EF92FF920F93AF
:1043A0001F93E82FF92F05C0015011092109310988
:1043B00061F1908196239417B9F305C0015011095A
:1043C0002109310911F1908196239413F7CFC12C63
:1043D000D12CE12CF12C0AC08FEFC81AD80AE80AB8
:1043E000F80A0C151D052E053F0579F080818623FE
:1043F000841791F36C2D7D2D8E2D9F2D1F910F9184
:10440000FF90EF90DF90CF90089560E070E080E043
:1044100090E01F910F91FF90EF90DF90CF90089563
:10442000109253031092520388EE93E0A0E0B0E0A4
:104430008093540390935503A0935603B09357036E
:1044400020E831E0309351032093500325EC30E015
:1044500030935D0320935C0324EC30E030935F03E2
:1044600020935E0320EC30E03093610320936003DF
:1044700021EC30E0309363032093620322EC30E0C0
:10448000309365032093640326EC30E03093670398
:10449000209366031092690310926A0310926B03D3
:1044A00010926C031092F0031092EF038093F103CB
:1044B0009093F203A093F303B093F40382E991E0A5
:1044C0009093EE038093ED039FEF9093F903109286
:1044D000FB031092FA0310920504109204044FEFAC
:1044E0005FEFBA014093000450930104609302040B
:1044F0007093030488E680931C0410920C041092BD
:104500000D0410920E0410920F04109214041092D5
:1045100015041092160410921704109218041092A9
:10452000190410921A0410921B0480911D058C30FE
:1045300008F07BC091E0980F90931D0580931E05B5
:1045400090E0FC01EE0FFF1FE80FF91FE750FB4F53
:1045500088EB9BE09283818389E080932B04109207
:104560002D041092450510924605109247051092B1
:1045700048051092490581E080934A058AEF8093AF
:104580004B0580E090E0A0EEB0E480934C05909362
:104590004D05A0934E05B0934F0584E190E09093B4
:1045A00051058093500510925305109252051092B8
:1045B000550510925405109257051092560550E07B
:1045C00040E06EEA71E082E595E00E9477188AEF9C
:1045D00090E090935A058093590582E593E090937B
:1045E0005C0580935B0586EB93E090935E0580937A
:1045F0005D0584E180938C051092270510922805B3
:104600001092290510922A0510922F05109230055C
:104610001092310510923205109233051092340534
:104620001092350510923605089590931E0594CF8B
:10463000CF93DF93CDB7DEB7AB970FB6F894DEBF5D
:104640000FBECDBF789484B5826084BD84B581608F
:1046500084BD85B5826085BD85B5816085BD80914D
:104660006E00816080936E001092810080918100C5
:1046700082608093810080918100816080938100BD
:10468000809180008160809380008091B10084607F
:104690008093B1008091B00081608093B0008091E0
:1046A0007A00846080937A0080917A00826080939F
:1046B0007A0080917A00816080937A0080917A00FC
:1046C000806880937A001092C100E0916003F091BD
:1046D000610382E08083E0915C03F0915D031082CE
:1046E000E0915E03F0915F038FEC8083109268038A
:1046F000E0916403F091650386E08083E0916203BA
:10470000F0916303808180618083E0916203F09186
:104710006303808188608083E0916203F09163038A
:10472000808180688083E0916203F09163038081DF
:104730008F7D808360E081E10E946C0161E085E013
:104740000E946C0161E086E00E946C0161E088E0FB
:104750000E946C0161E087E00E946C01F89485B5CD
:10476000887F846085BD789460E679E08AE090E097
:104770000E94A8018AE090E00E9411028AE590E080
:104780000E948D006DE770E080E090E00E94CE0214
:10479000A89560E679E08BE090E00E94A8018BE0AC
:1047A00090E00E9411028AE590E00E948D006DE782
:1047B00070E080E090E00E94CE02A895E0911E0596
:1047C0008E2F90E0FC01EE0FFF1FE80FF91FE7505E
:1047D000FB4F80818F7B808362E082E00E946C01CE
:1047E00086E99AE09093020180930101809169002B
:1047F0008C7F826080936900E89A809184028111A5
:1048000045C010927602109275028FEF8093790264
:1048100080937A0280937B0280937C0280937D0256
:1048200080937E0281E080937F0210928102109239
:104830008002109278021092770280914403909146
:104840004503892B31F483E792E0909345038093ED
:104850004403E0917102F0917202309721F083E7F6
:1048600092E09583848383E792E090937202809331
:10487000710210928302109282028EE691E0909370
:1048800074028093730281E080938402549A81EFD2
:1048900092E0909376028093750281E090E090938D
:1048A0008102809380028091FC039091FD03A0918E
:1048B000FE03B091FF03843C29E09207A105B105F6
:1048C00020F484EC99E0A0E0B0E08093FC039093A6
:1048D000FD03A093FE03B093FF0384E18093F903EB
:1048E000F89482E08093B0008093B10094E69093B6
:1048F000B3001092B20080937000789480932C04DF
:104900001092F80480912B0460E00E946C0160E03A
:104910008CE00E946C0161E08DE00E946C0160E01F
:1049200080E10E946C0160E08FE00E946C0160E019
:104930008EE00E946C011092700210926F02109231
:104940002103109243030E949C058CE594E0909310
:104950006E0280936D028DE594E090936C028093DB
:104960006B026AE0862E912CA12CB12C08EE13E08C
:104970009E012F5F3F4F41E065E780911C040E943C
:104980002013882339F089818E7790E0959587955B
:1049900080931D0410911D048DED91E00E946D1710
:1049A000212F30E050E040E019A26E0181E2C80EF4
:1049B000D11CCA01B901A50194010E94A735605D0F
:1049C000D6016E936D01211531054105510589F719
:1049D000109719F0CD010E946D178FEE91E00E94A3
:1049E0006D176AE070E080E090E00E94CE02F394E0
:1049F000BBE0FB1691F111501E3F08F0B7CF01E06C
:104A000023E042E06BE680911C040E94EF1600E078
:104A100022E044E06BE180911C040E94EF1622E04A
:104A200044E06CE180911C040E94EF16F0901C049D
:104A300008EE13E09E012F5F3F4F41E06BE68F2DA4
:104A40000E94201389818F7B89838CA3AE014C5DEA
:104A50005F4F6BE68F2D0E9451070E94B014109299
:104A6000D4021092D30288E19FE00FB6F894A89583
:104A7000809360000FBE9093600048E4442E44EFA2
:104A8000542E66246A94762CA8950E948C0A009174
:104A90008C0210918D0220918E0230918F02601B4A
:104AA000710B820B930B6B3071058105910508F436
:104AB00056C00E948C0A60938C0270938D02809382
:104AC0008E0290938F0281E10E949702BC01990FA0
:104AD000880B990B0E9421342AE939E949E15DE309
:104AE0000E9480346B017C012AE037ED43EA5DE3EC
:104AF0000E9480349B01AC01C701B6010E94D935E8
:104B000060933705709338058093390590933A0583
:104B100060913705709138058091390590913A057B
:104B200020914C0530914D0540914E0550914F0517
:104B30000E941A3487FFFCC0809105019091060104
:104B400001969093060180930501843F914039F4CA
:104B500081E08093450510920601109205018EE0D8
:104B60000E949702909344058093430540915B0512
:104B700050915C058091430590914405092E000CED
:104B8000AA0BBB0B0091590510915A0530E020E0AB
:104B900080179107A207B30744F070E060E021E0BE
:104BA000481759076A077B070CF420E02093470554
:104BB0008FE00E94970290934205809341054091B7
:104BC0005B0550915C058091410590914205092E4D
:104BD000000CAA0BBB0B0091590510915A0530E04F
:104BE00020E080179107A207B30744F070E060E06F
:104BF00021E0481759076A077B070CF420E020934F
:104C0000480580E10E9497029093400580933F05FC
:104C100040915B0550915C0580913F059091400566
:104C2000092E000CAA0BBB0B0091590510915A05D7
:104C300030E020E080179107A207B30744F070E04E
:104C400060E021E0481759076A077B070CF420E071
:104C5000209349050E945B0F80919002909107017B
:104C6000981751F080930701823009F475C008F05D
:104C700062C0813009F469C00E94750C80914505BD
:104C80008823E9F00E948C0A009197021091980203
:104C90002091990230919A02601B710B820B930B49
:104CA000693B7B408105910550F00E948C0A60931E
:104CB0009702709398028093990290939A020E94AF
:104CC0008C0A0091970210919802209199023091DC
:104CD0009A02DC01CB01801B910BA20BB30B20913C
:104CE0004505B7FD11C0853F31E09307A105B1052A
:104CF00014F4211137C0845F9140A109B109853CAA
:104D00009940A105B10510F0211167C08091D3022F
:104D10009091D4028230910509F4E3C008F06EC08E
:104D2000009709F478C040E050E8019781F155C040
:104D30001092450514CF833091F0843009F09CCF58
:104D40001092D4021092D30297CF81E090E090931A
:104D5000D4028093D30290CF82E090E0F8CF83E03A
:104D600090E0F5CF8A3F9105A105B105C8F4883CD4
:104D70009105A105B10590F484369105A105B10511
:104D800040F4C297A105B10548F040E050E060E072
:104D90003EC086399105A105B105B8F74FEFF6CFB2
:104DA0008039F1E09F07A105B10560F48E3521E05F
:104DB0009207A105B10590F78C329140A105B1058C
:104DC00020F7ECCF823CE1E09E07A105B105E8F2B7
:104DD000843F9140A105B10508F38091D3029091E1
:104DE000D402039709F0A2C080914A05811180C0C6
:104DF00060E088E090E00E945A1698C083309105E8
:104E000009F472C04EEE52E86EEE049731F782E07C
:104E10000E94C90BE2CF2223D9F04FEF50E060E0AF
:104E200082E00E94C90B67E070E080E090E00E94A1
:104E3000CE02A89540E050E060E082E00E94C90BFD
:104E400067E070E080E090E00E94CE02A895C5CFB8
:104E50000E948C0A00919302109194022091950275
:104E600030919602601B710B820B930B6F317105B1
:104E700081059105C0F0109191020E948C0A609307
:104E8000930270939402809395029093960280917E
:104E9000920281111EC01F5F10939102103519F408
:104EA00081E0809392021092F4021092F5028FEF4B
:104EB0008093F6028EEE8093F10292E89093F202D4
:104EC0008093F302809191028093F9030E94340B46
:104ED00084CF115010939102113029F71092920251
:104EE000E2CF4FEF5FEF53CF40E050E06FEF8FCF57
:104EF0008DE395E00E947A1780913D0590913E05E3
:104F00004091500550915105052E000C660B770B12
:104F1000B0E0A0E0481759076A077B07D4F06AEFB2
:104F200090E080E00E945A1610929F028091D30276
:104F30009091D402029709F0EBC180914A0581114A
:104F4000E2C060E088E090E00E945A161092A5024C
:104F5000DFC180919F0281110DC081E080939F028B
:104F60000E948C0A60939B0270939C0280939D0226
:104F700090939E020E948C0AC0909B02D0909C024B
:104F8000E0909D02F0909E026C197D098E099F09A8
:104F9000653F71408105910508F42ACF0E948C0A73
:104FA00008E11CEF2FEF3FEF0C191D092E093F09F7
:104FB000DC01CB01800F911FA21FB31F853F9140E1
:104FC000A105B10508F414CF0E948C0A00E318EF84
:104FD0002FEF3FEF0C191D092E093F09DC01CB0112
:104FE000800F911FA21FB31F853F9140A105B105FE
:104FF00008F4FECE0E948C0A930182010C191D094F
:105000002E093F09DC01CB01800F911FA21FB31FA6
:10501000853F9140A105B10508F4EACE0E948C0AB3
:105020000CE01EEF2FEF3FEF0C191D092E093F0971
:10503000DC01CB01800F911FA21FB31F853F914060
:10504000A105B10508F457C00E948C0A04E21AEFCA
:105050002FEF3FEF0C191D092E093F09DC01CB0191
:10506000800F911FA21FB31F853F9140A105B1057D
:1050700008F445C00E948C0A0CE316EF2FEF3FEFB7
:105080000C191D092E093F09DC01CB01800F911F6E
:10509000A21FB31F853F9140A105B10580F10E9479
:1050A0008C0A04E512EF2FEF3FEF0C191D092E09B2
:1050B0003F09DC01CB01800F911FA21FB31F853F69
:1050C0009140A105B105B8F00E948C0A00E610EFEE
:1050D0002FEF3FEF0C191D092E093F09DC01CB0111
:1050E000800F911FA21FB31F853F9140A105B105FD
:1050F00008F47ECE1BCF6FEF83E090E07CCE6FEFA5
:1051000082E090E078CE8091A502209108019091F4
:10511000A4022913CFC0811108C08DE395E00E943D
:105120007A17809108018093A40280913D059091A7
:105130003E054091500550915105052E000C660B1F
:10514000770BB0E0A0E0481759076A077B070CF41B
:10515000F4C08091A5028111B6C081E08093A502C0
:105160000E948C0A6093A0027093A1028093A20215
:105170009093A3020E948C0AC090A002D090A1023A
:10518000E090A202F090A3026C197D098E099F099C
:10519000653F71408105910508F4AAC00E948C0A00
:1051A0000CE01EEF2FEF3FEF0C191D092E093F09F0
:1051B000DC01CB01800F911FA21FB31F8536910523
:1051C000A105B10508F49BC00E948C0A08EA1DEFF6
:1051D0002FEF3FEF0C191D092E093F09DC01CB0110
:1051E000800F911FA21FB31F893E9340A105B105F7
:1051F00008F489C00E948C0A00EC19EF2FEF3FEFF2
:105200000C191D092E093F09DC01CB01800F911FEC
:10521000A21FB31F85369105A105B10508F487C00B
:105220000E948C0A0CE519EF2FEF3FEF0C191D09B6
:105230002E093F09DC01CB01800F911FA21FB31F74
:10524000853F9140A105B10508F455C00E948C0A24
:105250006C197D098E099F09685978408109910967
:10526000653F71408105910508F463C00E948C0A76
:105270006C197D098E099F096C587A408109910942
:105280006D32714081059105F0F10E948C0A930105
:1052900082010C191D092E093F09DC01CB01800F89
:1052A000911FA21FB31F85369105A105B10580F599
:1052B00084E026C0882309F430CF60E088E090E0E5
:1052C0000E945A162ACF0E948C0A0091A0021091C7
:1052D000A1022091A2023091A302601B710B820BEC
:1052E000930B6D317C408105910508F036CF42CF9C
:1052F00081E0809308016AEF83E090E007C082E0DC
:105300008093080105C06AEF82E090E00E945A167F
:105310008091D3029091D402019709F091C18091BC
:105320004A0581110EC060E088E090E036C183E05C
:10533000E7CF6AEF81E090E0E9CF6AEF90E080E0AC
:1053400003CE80E10E9497028C018FE00E949702B9
:105350006C018EE00E94970240915B0550915C05C4
:1053600070E060E08090590590905A05B12CA12C16
:105370000D2C000CEE08FF08C814D904EA04FB0445
:105380000CF4C5C04C155D056E057F050CF4BFC05F
:1053900068EC90E080E00E945A1681E080930A0158
:1053A000809309018091D3029091D40284309105B9
:1053B00009F058C160914B058091D1029091D202C1
:1053C0000E945A1680E394E09093EE028093ED02DF
:1053D0008091F80490E09093F0028093EF02809126
:1053E0002C04853009F077C0809132049091330409
:1053F000885891098D35910508F0A1C18091F80474
:10540000843009F070C18091340490913504809704
:10541000479708F068C18091360490913704099746
:10542000099708F060C11092EC021092EB028FEF26
:105430009FEFDC018093E7029093E802A093E902DA
:10544000B093EA0281E090E09093E4028093E3025B
:105450000E948C0A6093B0027093B1028093B202F2
:105460009093B3028091E7029091E802A091E90243
:10547000B091EA028F34F0EB9F07FFEFAF07B10561
:1054800009F4F6C608F071C6873C38E393073FEF8E
:10549000A307B10509F4FAC608F036C68F3EF0E15D
:1054A0009F07FFEFAF07B10509F4BBC608F013C6AD
:1054B0008B3B3DE1930731E5A307B10509F43BC6FA
:1054C0008D3F9240AF4FB10509F4CCC682E0809386
:1054D0002C041092F8048091AF02882309F407C7C6
:1054E000EDA1E250ED3008F0D5C6F0E0E658F54DFC
:1054F0000C943637DC31E331E631E931F031F73104
:10550000FA31FD3111321A32293232323432092E57
:10551000000CAA0BBB0B88159905AA05BB052CF03E
:10552000481759076A077B07DCF5012E000C220B90
:10553000330B081519052A053B05B4F580910A01BE
:10554000882389F010920A010E948C0A6093A602B7
:105550007093A7028093A8029093A90260E088E06C
:1055600090E00E945A160E948C0AC090A602D09029
:10557000A702E090A802F090A9026C197D098E099B
:105580009F09693C710581059105B8F48091090175
:10559000882341F16AEF83E090E00E945A1602CF1F
:1055A00068EC83E090E0F7CE40175107620773077D
:1055B0002CF268EC82E090E0EECE0E948C0A00ECC7
:1055C00019EF2FEF3FEF0C191D092E093F09DC01E0
:1055D000CB01800F911FA21FB31F81399140A105FC
:1055E000B105A0F20E948C0A6C197D098E099F09F1
:1055F000685C7109810991096937754081059105D8
:10560000B8F00E948C0A930182010C191D092E0921
:105610003F09DC01CB01800F911FA21FB31F853F03
:105620009140A105B10508F0BDCE109209017BCED5
:1056300080910901882329F36AEF82E090E0ADCFE1
:1056400080910A018111AECE81E08093090180939F
:105650000A011092A6021092A7021092A8021092BC
:10566000A902A0CE892B09F0ADCE60E088E090E0E1
:105670000E945A1680910B01882309F4A3CE0E9440
:105680008C0A0091AB021091AC022091AD023091D6
:10569000AE02601B710B820B930B653171058105A6
:1056A000910508F48FCE0E948C0A6093AB02709330
:1056B000AC028093AD029093AE020E945B0F8823F0
:1056C00079F08091AA028F5F8093AA028091AA024A
:1056D0008B3008F477CE10920B010E94B01472CE7A
:1056E0001092AA02F3CF8091F804843440F18091A3
:1056F000340490913504825491098E9700F590E01E
:1057000080E040E050E0BA01FC01EA5CFB4F208100
:105710003181295031092930310588F4FC01E85CD8
:10572000FB4F20813181265131092131310528F18A
:10573000208131812650310927303105B8F180911F
:10574000F8048A3108F467C08091300490913104E4
:10575000843F914080F51092EC021092EB028FEFA3
:105760009FEFDC018093E7029093E802A093E902A7
:10577000B093EA0289E090E067CE440F551F661FA0
:10578000771F416004968038910509F0BDCF80E213
:1057900090E09093EC028093EB024093E7025093E9
:1057A000E8026093E9027093EA024CCE440F551F61
:1057B000661F771FE7CF809132049091330485975D
:1057C0004B9748F5EBE2F4E082E090E040E050E0F7
:1057D000BA01A091F8049C012F5F3F4FA217130656
:1057E00009F00CF4F4C021853285275031092730A7
:1057F000310508F0ECC023853485235131092F3061
:10580000310508F4D7C0238534852A503109293061
:10581000310508F4D7C08091F8048A3108F43FC0FC
:1058200080913004909131048032934008F493CFFA
:105830008091320490913304C697869780F58091C9
:10584000340490913504C697869748F5EBE2F4E06E
:1058500083E090E040E050E0BA01A091F8049C01A0
:105860002F5F3F4FA217130609F00CF4D6C0238513
:1058700034852C5031092B30310508F0CEC02585F8
:105880003685255231092B31310508F4B9C02585FB
:1058900036852C5031092A30310508F4B9C0809181
:1058A000F804823238F180913204909133040697E3
:1058B000079700F5EBE2F4E082E090E040E050E092
:1058C000BA01DC0111962091F8042A171B0609F091
:1058D0000CF4CFC0218532852E5131092731310595
:1058E00008F4B2C0218532852C5031092B303105A6
:1058F00008F4B9C08091F8048D3008F4EBC081E061
:1059000090E09BA38AA31A82198249E753E0BE0163
:105910006F5F7F4FCE0182960E94E503892B09F0CD
:10592000D9C049E753E0BE016F5F7F4FCE01829639
:105930000E94E503019709F0CDC049E753E0BE019D
:105940006F5F7F4FCE0182960E94E5038C01892B09
:1059500009F0C0C0812C912C54012091F8048AA137
:105960009BA12817190609F00CF4A5C049E753E0DC
:10597000BE016F5F7F4FCE0182960E94E5037C01DE
:1059800049E753E0BE016F5F7F4FCE0182960E94D0
:10599000E503B1E0EB16F10409F084C0892B09F0AE
:1059A00099C0880C991CAA1CBB1C689480F80F5FD6
:1059B0001F4FD3CF440F551F661F771F41600296BC
:1059C000349607CF440F551F661F771FF8CF0197F6
:1059D000959587959093EC028093EB020C972CF4AD
:1059E0001092EC021092EB0216CF4093E702509314
:1059F000E8026093E9027093EA0282E090E024CD2D
:105A0000440F551F661F771F41600296349625CFBD
:105A1000440F551F661F771FF8CF019795958795FF
:105A20009093EC028093EB020C972CF41092EC0212
:105A30001092EB0234CF4093E7025093E802609358
:105A4000E9027093EA0296CE440F551F661F771F36
:105A50004160238534853496235031092530310542
:105A600038F402962ECF440F551F661F771FF1CFD3
:105A7000CD010197959587959093EC028093EB0269
:105A800040972CF41092EC021092EB0233CF40932B
:105A9000E7025093E8026093E9027093EA028AE019
:105AA00090E0D2CCEF28B1F40197A1F4880C991CB6
:105AB000AA1CBB1C7CCF1093EC020093EB028092DB
:105AC000E7029092E802A092E902B092EA0283E033
:105AD00090E0BACC8091EF029091F002181619066E
